:020000040800F2
:100000000050002021020008270200082B020008EF
:100010009D020008A1020008E9020008000000009B
:100020000000000000000000000000003103000894
:100030003503000800000000390300083D030008F4
:100040004D0300084D0300084D0300084D03000850
:100050004D0300084D0300084D0300084D03000840
:100060004D0300084D0300084D0300084D03000830
:100070004D0300084D0300084D0300084D03000820
:100080004D0300084D0300084D0300084D03000810
:100090004D0300084D0300084D0300084D03000800
:1000A0004D0300084D0300084D0300084D030008F0
:1000B0004D0300084D0300084D0300084D030008E0
:1000C0004D0300084D0300084D0300084D030008D0
:1000D0004D030008E5110008B51200084D030008A3
:1000E0004D0300084D0300084D0300080000000008
:1000F0000000000000000000000000000000000000
:1001000000000000000000005FF808F100B583B0B7
:1001100000F0AAF9304B314A1360314A1360314B79
:10012000314A32498B4204D21168196004330432D7
:10013000F7E72A4B1A682E4B9A4200D0FEE7284B6D
:100140001A682C4B9A42F9D1234B2B4A13602B4A45
:1001500013602B4B02E000221A600433294A9342B9
:10016000F9D3254B1B6813B9244B1B6803B1FEE779
:1001700000F086F9694601A800F022F9224C234BD1
:10018000E41AA4100025AC4214DC214C214BE41AE3
:10019000A4100025AC4213DC0099019801F0C8FBC3
:1001A00005461D4C1D4BE41AA410002C0EDC2846FD
:1001B00000F0E2F8154B53F8253098470135E2E797
:1001C000144B53F8253098470135E3E7013C134BB6
:1001D00053F824309847E8E7BABADECA0000002096
:1001E000840000200000002068260008880000200D
:1001F0007856341232547698880000207402002019
:1002000088000020780200207803000878030008A6
:1002100078030008780300087803000878030008D2
:1002200008B5FFF773FF00BEFEE71EF0040F0CBF1A
:10023000EFF30880EFF309807146414A10472DE93A
:10024000F04182B004468846124B5E6B9F6B9D6AFC
:100250001B6B13F0020F03D00E4BDB6A002B0CDB81
:100260000D4800F0B5F8CDF800803B4632462946EF
:10027000204600F009F900BEFEE74BF6AB6100F046
:100280007DF90028ECD0034B4FF00042DA6202B057
:10029000BDE8F08100ED00E06825000800BEFEE743
:1002A0001EF0040F0CBFEFF30880EFF309807146D6
:1002B000244A10472DE9F04182B004468846084B95
:1002C0005E6B9F6B9D6A074800F082F8CDF8008056
:1002D0003B4632462946204600F0D6F800BEFEE7EF
:1002E00000ED00E0782500081EF0040F0CBFEFF3CE
:1002F0000880EFF309807146134A10472DE9F04159
:1003000082B004468846084B5E6B9F6B9D6A074827
:1003100000F05EF8CDF800803B4632462946204684
:1003200000F0B2F800BEFEE700ED00E08425000812
:1003300000BEFEE700BEFEE700BEFEE7704700001D
:100340003F020008B5020008FD02000800BEFEE7FB
:1003500068260008000000208800002068260008A9
:10036000000000000000000088000020780200204B
:08037000000000000000000085
:10037800FEE7000008B503460C4A12685AB10B4A5A
:100388001068033323F003030344094A934206D851
:10039800064A136008BD054A06491160EFE701F0F7
:1003A80019FC0C2303604FF0FF30F3E78C000020AA
:1003B800004C00207802002001230360014B0B60F1
:1003C800704700BF040000200FB400B583B004AB31
:1003D80053F8042B01938021064801F035FC0028CE
:1003E80003DD0146034800F037F803B05DF804EB7D
:1003F80004B07047940000202DE9F04385B004460E
:100408000F4643560BB10E461EE0042528462146EA
:10041800ABBE0446384605B0BDE8F08314F9011BAD
:1004280004AA1A4402F8101C0133AB42F6D304AAFA
:100438001344002203F8102C4FF00408E946404604
:100448004946ABBE8046761B002EE3D03546102EBB
:1004580028BF10250023E8E708B5FFF7CDFF08BD42
:1004680008B500F0FDF8024A024B9A6008BD00BFCB
:100478000000000800ED00E008B500F019F908BD1B
:10048800F8B504460D4617461E462748FFF79CFF59
:1004980021682648FFF798FF61682548FFF794FF11
:1004A800A1682448FFF790FFE1682348FFF78CFF15
:1004B80021692248FFF788FF61692148FFF784FF17
:1004C800A1692048FFF780FFE1691F48FFF77CFF1B
:1004D8001E48FFF779FF29461D48FFF775FF1D4C99
:1004E800E16A1D48FFF770FF216B1C48FFF76CFF9E
:1004F800E16B1B48FFF768FF15F0800F0AD115F470
:10050800004F0CD11748FFF75FFF06991648FFF711
:100518005BFFF8BD39461548FFF756FFEFE7314650
:100528001348FFF751FFEDE74C2400085C2400084E
:100538006C2400087C2400088C2400089C240008F3
:10054800AC240008BC240008CC240008DC240008E3
:10055800E824000800ED00E0F82400080825000859
:1005680018250008482500085025000828250008F7
:100578003825000883691A888A4201D0002070470C
:100588000268033A012A03D80233836101207047C5
:100598000020704782B00023019300932C4A13680F
:1005A80043F4803313602A4B1B6803F40033009331
:1005B800019B01330193009B1BB9019BB3F5A06F0D
:1005C800F1D1234B1B6813F4003F06D0012300939D
:1005D800009B012B04D002B0704700230093F7E77B
:1005E8001C4B1A6842F010021A601A6822F00302C3
:1005F8001A601A6842F002021A60A3F580535A681A
:100608005A605A685A605A6842F480625A605A6856
:1006180022F47C125A605A6842F4E8125A601A6846
:1006280042F080721A600A4B1B6813F0007FFAD000
:10063800074B5A6822F003025A605A6842F00202D5
:100648005A60034B5B6803F00C03082BF9D1C2E72F
:10065800001002400020024008B5FFF79BFF08BDCC
:1006680008B5104B1A6842F001021A6059680E4A20
:100678000A405A601A6822F0847222F480321A60A2
:100688001A6822F480221A605A6822F4FE025A601C
:100698004FF41F029A60FFF7DFFF044B4FF0006230
:1006A8009A6008BD001002400000FFF800ED00E06D
:1006B8001F4B5B6803F00C03042B15D0082B17D0D5
:1006C8001BB11C4B1C4A1A6002E01A4B1A4A1A60EA
:1006D800174B5B68C3F30313184AD35CDAB21549A6
:1006E8000B68D3400B607047124B134A1A60EFE750
:1006F8000F4A53685268C3F38343023312F4803FAE
:100708000AD00B4A526812F4003F0BD00C4A02FB85
:1007180003F3084A1360DBE7094A02FB03F3054ABF
:100728001360D5E7044A02FB03F3024A1360CFE7DC
:10073800001002401C00002000127A000C0000206B
:1007480000093D00014B01221A7070471C0100206E
:100758007047704708B5074B1B783E2B05D0012220
:100768000449104600F0FCFC08BD034B01221A7036
:10077800FAE700BF040200201D01002038B5734BC2
:100788001B78082B13D8DFE813F00900170028009E
:1007980039004A005B006C007D00D3006C4B1B786D
:1007A8002B2B05D001226A49104600F0D9FC38BD30
:1007B800664B01221A70F5E7654B1B78492B08D068
:1007C800624B00221A7001226149104600F0C8FCF1
:1007D800EDE75E4B02221A70F5E75D4B1B78502B54
:1007E80008D05A4B00221A7001225949104600F0CD
:1007F800B7FCDCE7554B03221A70F5E7544B1B781E
:10080800442B08D0514B00221A700122504910463F
:1008180000F0A6FCCBE74D4B04221A70F5E74C4BD1
:100828001B782C2B08D0494B00221A70012248490A
:10083800104600F095FCBAE7444B05221A70F5E71C
:10084800434B1B78302B08D0404B00221A700122F2
:100858003F49104600F084FCA9E73C4B06221A7079
:10086800F5E73B4B1B782C2B08D0384B00221A702D
:1008780001223749104600F073FC98E7334B0722F2
:100888001A70F5E7324B1B783A2B09D1314B1A68AD
:10089800002313802D4A082111702F4A137021E07C
:1008A8002E490A78303B2E4820F8123001320A705F
:1008B80001222749104600F053FC78E7284830F811
:1008C800113003EB83035C0020F811400132254B03
:1008D8001A70244B1A786B1A013B9A42EEDB0131ED
:1008E8001D4B19701C4B19781C4B1D78A94203D25B
:1008F8001C4B00221A70ECE7174B00221A700AE012
:10090800144A1168164A32F81320088802440A80EB
:100918000133114A1370104B1B789D42F0D80D4BD0
:100928001B681A88104B1968012000F019FC3EE773
:100938000023064A1370084A1370084A1370094ABC
:1009480013700A4B1B68984731E700BF1E0100204F
:100958000402002070020020210100202301002051
:1009680014010020220100200802002000020020BB
:1009780008B53C4B1B78042B13D8DFE803F00317AA
:100988002E455C00384B19780A290BD0374A137862
:100998003748C1540133137001223349104600F01F
:1009A800DFFB08BD2F4B01221A70EFE72E4B197899
:1009B8004F290ED02B4B00221A702C4A13782C4842
:1009C800C1540133137001222749104600F0C8FBB7
:1009D800E7E7244B02221A70EFE7234B19784B29DB
:1009E8000ED0204B00221A70204A13782048C15498
:1009F8000133137001221C49104600F0B1FBD0E707
:100A0800184B03221A70EFE7174B19780D290ED0EF
:100A1800144B00221A70154A13781548C154013333
:100A2800137001221049104600F09AFBB9E70D4BEC
:100A380004221A70EFE70B4B00221A700B490B784F
:100A4800094A12780A48C25401330B700A2A03D1A2
:100A5800084B01221A70A4E701220349104600F04E
:100A68007FFB9EE71F0100200402002024010020D4
:100A78000C0200201C01002008B55F4B1B78072BD7
:100A880014D8DFE803F004182F465D748BA25B4B83
:100A980019780A290BD05A4A13785A48C154013395
:100AA800137001225549104600F05AFB08BD524BFD
:100AB80001221A70EFE7514B197872290ED04E4B6C
:100AC80000221A704E4A13784E48C15401331370ED
:100AD80001224A49104600F043FBE7E7464B022251
:100AE8001A70EFE7454B197865290ED0424B002262
:100AF8001A70434A13784348C154013313700122D2
:100B08003E49104600F02CFBD0E73B4B03221A70FD
:100B1800EFE73A4B197861290ED0374B00221A704B
:100B2800374A13783748C1540133137001223349C7
:100B3800104600F015FBB9E72F4B04221A70EFE7B7
:100B48002E4B197864290ED02B4B00221A702C4A90
:100B580013782C48C15401331370012227491046D9
:100B680000F0FEFAA2E7244B05221A70EFE7234BA8
:100B7800197879290ED0204B00221A70204A137850
:100B88002048C1540133137001221C49104600F05B
:100B9800E7FA8BE7184B06221A70EFE7174B19781C
:100BA8000D290ED0144B00221A70154A13781548D7
:100BB800C1540133137001221049104600F0D0FAD5
:100BC80074E70D4B07221A70EFE70B4B00221A70DF
:100BD8000B490B78094A12780A48C25401330B7042
:100BE8000A2A03D1084B01221A705FE70122034940
:100BF800104600F0B5FA59E7200100200402002051
:100C0800250100200C0200201C01002008B1014A27
:100C1800106070470002002010B588B0284B93E898
:100C280003000090ADF80410264C0294264B039361
:100C3800264B0493264B0593264B0693264B079386
:100C48002649012000F0BCFA2549012000F0AAFA43
:100C5800012000F0F9F901222249104600F080FA3B
:100C680008222146012000F057FA1F4B1B78002B61
:100C7800FBD01D4B00221A701C49012000F0A0FA7D
:100C8800012419E001221749104600F069FA08AB5F
:100C9800234413F8202C08AB03EB840353F8181CE7
:100CA800012000F039FA104B1B78002BFBD00E4BBB
:100CB80000221A700134E4B2052CE3D908B010BD43
:100CC80098250008A0250008AC250008B4250008D0
:100CD800C4250008E4250008F4250008810A000856
:100CE8005B070008040200201C01002079090008A5
:100CF80070B582B040F60D23ADF80030002860D002
:100D08000646B1F5006F5ED80D463049012000F067
:100D180057FA2F49012000F045FA2B4600240FE02E
:100D28002C4AA2FB0312D20802EB820041005B1A94
:100D3800303302A9214401F8043C93B20134E4B2EF
:100D4800002BEDD10D222449012000F0E5F9234BB9
:100D58001B78002BFBD0214B00221A700FE0611E7C
:100D6800012201AB1944104600F0D6F91B4B1B7841
:100D7800002BFBD0194B00221A70013CE4B2002C66
:100D8800EDD101221649104600F0EAF9022269461F
:100D9800012000F0C1F9134B1B78002BFBD0114B3D
:100DA80000221A702A463146012000F0B5F90B4B93
:100DB8001B78002BFBD0094B00221A70204602B08A
:100DC80070BD0224FAE70224F8E700BF5D070008B7
:100DD8004D070008CDCCCCCC082600081C0100200B
:100DE800040200201D010020C8B170B50646C1B13B
:100DF8000D4600240C4B1C700C49012000F0E0F952
:100E08000B49012000F0CEF90A4B1E600A4B1D6009
:100E180001220A49104600F0A3F9204670BD0220BD
:100E280070470220FAE700BF1C0100208507000870
:100E38005907000808020020700200200402002060
:100E4800184B1B6913F0800F03D10368B3F1FF3F00
:100E580001D001207047134BDB6813F0010FFAD162
:100E6800104A136943F00103136101800D4BDB68DD
:100E780013F0010FFAD10B4AD36843F02003D36073
:100E8800090C4180074BDB6813F0010FFAD1054BC1
:100E98001A6922F001021A61DA6842F02002DA6067
:100EA800D7E700BF0020024030B4134BDB6813F0D3
:100EB800010FFAD1104C236943F001032361002488
:100EC8000EE030F8143021F814300B4BDB6813F0C7
:100ED800010FFAD1084DEB6843F02003EB600134B1
:100EE800B4EB520FEDD3044A136923F001031361E5
:100EF800012030BC704700BF00200240064B074A63
:100F08005A6002F188325A601B6913F0800F01D0D1
:100F180000207047012070470020024023016745E8
:100F2800154B1B6913F0800F24D1134BDB6813F0AA
:100F3800010FFAD1104B1A6942F002021A61586186
:100F48001A6942F040021A610B4BDB6813F0010F7B
:100F5800FAD1094B1A6922F002021A61DA6842F0E2
:100F68002002DA600368B3F1FF3F01D00020704728
:100F7800012070470020704700200240064B1A6984
:100F880042F080021A611B6913F0800F01D1002022
:100F980070470120704700BF0020024010B401686C
:100FA8004368072B10D90F2B1CD8083B43604A68AD
:100FB8009B000F249C4022EA0404027A02FA03F3FD
:100FC80023434B6001200BE00A689B000F249C40E0
:100FD80022EA0404027A02FA03F323430B60012095
:100FE80010BC70470020FBE7F0B404783A2C16D008
:100FF800F0BC7047A6F14105EDB2052D01D8373E8A
:101008003E700134E4B24E1EB4420ADA0719065D96
:10101800A6F13005EDB2092DECD80555F1E701240C
:10102800F1E7002501240BE00719015D0901C9B2A8
:1010380001557F78394351550234E4B20135EDB298
:10104800A642F1DC1D70D3E730B589B00446002311
:101058008DF8023001238DF801300A238DF81C30F9
:1010680004238DF81030042804D8DFE800F00518B0
:101078002B3E3E00002539E0254B059302930923BA
:1010880006930A230393042000F0D0FB4FF480401A
:1010980000F0CCFB25238DF80030002526E01C4B02
:1010A800059302930223069303230393042000F07D
:1010B800BDFB4FF4003000F0C1FB26238DF8003053
:1010C800002513E0134B059302930A2306930B2381
:1010D8000393082000F0AAFB4FF4802000F0AEFB39
:1010E80027238DF80030002500E0022505A8FFF72A
:1010F80055FF02A8FFF752FF684600F0B4FA6846A9
:1011080000F03CF9204600F0A1FB284609B030BDAC
:1011180000080140000C0140042818D8C9B1B2F5F4
:101128007A7F18D838B50D4B03EB00131B7B0BB136
:10113800012038BD094D04012B1929519A6001225B
:101148001A735A60097800F0BFFB0020F1E702200B
:101158007047022070470220704700BFA00100209E
:10116800042814D8A9B1B2F57A7F14D80C4B03EB34
:1011780000131B7B8BB910B4094C000123182150B4
:10118800002058609A6001221A7310BC7047022030
:10119800704702207047022070470120704700BF47
:1011A8005001002031B1042806D8044A42F8201022
:1011B8000020704702207047022070473C01002041
:1011C80031B1042806D8044A42F82010002070479C
:1011D80002207047022070472801002010B582B015
:1011E80000248DF807408DF806408DF805400DF174
:1011F80006020521204600F079FB0DF107020621C1
:10120800204600F073FB0DF105020821204600F08E
:101218006DFB9DF807300BB3204B1B7B012B18D1BE
:101228001E4B9A685B689A4209D11C4B00221A60CF
:101238009A605A601A731A4B1B6898470EE0174C4D
:101248002268D15C002000F03FFB636801336360D3
:1012580004E06FF04001002000F056FB9DF80630D6
:101268001BB1104B1B7B012B01D002B010BD0D4CE4
:10127800216863681944002000F02EFB636801337D
:101288006360A2689342F0D100222260A26062608B
:101298002273054B1B689847E7E700BFA0010020B1
:1012A8003C010020500100202801002010B582B028
:1012B80000238DF807308DF806308DF805300DF1D4
:1012C80006020521012000F011FB0DF1070206219D
:1012D800012000F00BFB0DF105020821012000F0B0
:1012E80005FB9DF807300BB3204B1B7F012B18D152
:1012F8001E4B9A695B699A4209D11C4B00221A61FC
:101308009A615A611A771A4B5B6898470EE0174C36
:101318002269D15C012000F0D7FA63690133636167
:1013280004E06FF04001012000F0EEFA9DF806306D
:101338001BB1104B1B7F012B01D002B010BD0D4C0F
:10134800216963691944012000F0C6FA6369013311
:101358006361A2699342F0D100222261A2616261B5
:101368002277054B5B689847E7E700BFA00100209C
:101378003C010020500100202801002010B483B057
:1013880003781F2B2ED84278EAB14FF0E021D1F82C
:1013980080220192012202FA03F3019C2343019364
:1013A800019BC1F88032D1F800310193037802FA29
:1013B80003F3019803430193019BC1F800311046E0
:1013C80003B010BC70474FF0E022D2F880110191B1
:1013D800012000FA03F301990B430193019BC2F822
:1013E8008031EDE73F2B2DD8203BDBB24278D2B1DC
:1013F8004FF0E022D2F884120191012000FA03F3A1
:101408000199194301910199C2F88412D2F8841202
:101418000191D2F80411019101990B430193019BA9
:10142800C2F80431CCE74FF0E022D2F884110191E0
:10143800012000FA03F301990B430193019BC2F8C1
:101448008431BDE75F2B2AD8403BDBB24278BAB182
:101458004FF0E022D2F888120191012000FA03F33C
:101468000199194301910199C2F88812D2F808111B
:10147800019101990B430193019BC2F808319FE741
:101488004FF0E022D2F888110191012000FA03F30D
:1014980001990B430193019BC2F8883190E713F03F
:1014A800800F2AD1603BDBB24278BAB14FF0E0221C
:1014B800D2F88C120191012000FA03F30199194323
:1014C80001910199C2F88C12D2F80C11019101997D
:1014D8000B430193019BC2F80C3171E74FF0E022F6
:1014E800D2F88C110191012000FA03F301990B4302
:1014F8000193019BC2F88C3162E79F2B2AD883F0B5
:1015080080034278BAB14FF0E022D2F890120191EC
:10151800012000FA03F30199194301910199C2F8D6
:101528009012D2F81011019101990B430193019B7C
:10153800C2F8103144E74FF0E022D2F8901101913F
:10154800012000FA03F301990B430193019BC2F8B0
:10155800903135E7BF2B2AD86033DBB24278BAB175
:101568004FF0E022D2F894120191012000FA03F31F
:101578000199194301910199C2F89412D2F81411F2
:10158800019101990B430193019BC2F8143117E7AC
:101598004FF0E022D2F894110191012000FA03F3F0
:1015A80001990B430193019BC2F8943108E7DF2BA3
:1015B8002AD84033DBB24278BAB14FF0E022D2F8F1
:1015C80098120191012000FA03F30199194301913E
:1015D8000199C2F89812D2F81811019101990B4398
:1015E8000193019BC2F81831EAE64FF0E022D2F8E5
:1015F80098110191012000FA03F301990B4301931B
:10160800019BC2F89831DBE6EE2B2AD82033DBB2F7
:10161800427872B94FF0E022D2F89C110191012072
:1016280000FA03F301990B430193019BC2F89C3123
:10163800C6E64FF0E022D2F89C120191012000FA90
:1016480003F30199194301910199C2F89C12D2F848
:101658001C11019101990B430193019BC2F81C31A4
:10166800AEE60020ACE603781F2B17D8827852B17B
:101678004FF0E022D2F80012012000FA03F30B43E6
:10168800C2F8003270474FF0E022D2F880120120F1
:1016980000FA03F30B43C2F8803270473F2B19D886
:1016A800203BDBB2827852B14FF0E022D2F804122C
:1016B800012000FA03F30B43C2F8043270474FF0DD
:1016C800E022D2F88412012000FA03F30B43C2F897
:1016D800843270475F2B19D8403BDBB2827852B115
:1016E8004FF0E022D2F80812012000FA03F30B436E
:1016F800C2F8083270474FF0E022D2F88812012071
:1017080000FA03F30B43C2F88832704713F0800FD6
:1017180019D1603BDBB2827852B14FF0E022D2F8A7
:101728000C12012000FA03F30B43C2F80C32704785
:101738004FF0E022D2F88C12012000FA03F30B4399
:10174800C2F88C3270479F2B19D883F080038278B7
:1017580052B14FF0E022D2F81012012000FA03F340
:101768000B43C2F8103270474FF0E022D2F89012C3
:10177800012000FA03F30B43C2F890327047BF2BE5
:1017880019D86033DBB2827852B14FF0E022D2F838
:101798001412012000FA03F30B43C2F81432704705
:1017A8004FF0E022D2F89412012000FA03F30B4321
:1017B800C2F894327047DF2B19D84033DBB28278F5
:1017C80052B14FF0E022D2F81812012000FA03F3C8
:1017D8000B43C2F8183270474FF0E022D2F8981243
:1017E800012000FA03F30B43C2F898327047EE2B3E
:1017F80019D82033DBB2827852B94FF0E022D2F800
:101808009C12012000FA03F30B43C2F89C32704784
:101818004FF0E022D2F81C12012000FA03F30B4328
:10182800C2F81C327047002070470000024A9369D2
:10183800184390610120704700100240024AD369A2
:101848001843D061012070470010024018B10128E8
:101858001CD0012070471B4A52F82030DA6842F445
:101868000052DA6040F271229A601A6922F44052FA
:101878001A611A691A61DA6822F4B052DA60DA6811
:10188800DA60DA6842F06C02DA60E2E70D4A52F890
:101898002030DA6842F40052DA604FF49C729A60A1
:1018A8001A6922F440521A611A691A61DA6822F434
:1018B800B052DA60DA68DA60DA6842F06C02DA604C
:1018C800C7E700BF18260008024B53F820305960BC
:1018D8000120704718260008034B53F820305B6836
:1018E8000B700120704700BF18260008054B53F8FD
:1018F80020301B6823FA01F101F001011170012069
:10190800704700BF18260008034B53F820201368BF
:10191800194011600120704718260008014B012268
:101928001A7070471C01002010B59CB03224224662
:1019380000210FA800F054F92246002102A800F067
:101948004FF99A4B1B68ADF804301B0C8DF8063024
:101958000023ADF80230964B1B68964A934200F07C
:10196800A280B3F1FF3F04D0934A934200F09F80D6
:10197800FEE7FFF751F99148FFF748F90DF1020129
:101988000FA8FFF731FA8E4B1B78002BFBD00023F2
:101998008B4A137007E01CAA1A4412F8341C12F878
:1019A8006C2C914207D0022BF5D9032BE0D1FFF71D
:1019B800A5FA00240BE00133DBB2F4E7A00200F142
:1019C800006000F59840FFF7ABFA0134E4B22C2C24
:1019D800F4D903217B48FFF78BF900240DF10201AC
:1019E8000FA8FFF701FA764B1B78002BFBD0744B3E
:1019F80000221A700DF1070302AA9DF802100FA821
:101A0800FFF7F2FA9DF80B30052BE7D801A252F840
:101A180023F000BF351A0008571A0008E519000816
:101A2800E51900086B1A0008831A00089DF80930A8
:101A38009DF80A1041EA03219DF80820214303A8D4
:101A4800FFF732FA03215F48FFF752F9C6E7594911
:101A58005748FFF7F5F9FFF791FA5B4B5B4A1A60B5
:101A680086E79DF80C309DF80D40240444EA036491
:101A780003215448FFF73CF9B0E79DF80C209DF886
:101A88000D301B0443EA02639DF80E2043EA02234B
:101A98009DF80F1019434E48FFF7D2F90321494822
:101AA800FFF726F99AE7424B5B68984760E7012001
:101AB800FFF7CAFA4148FFF7A9F8FFF71FFA002411
:101AC8002C2C09D8A00200F1006000F59840FFF71F
:101AD80027FA0134E4B2F3E703213A48FFF708F99B
:101AE80000240DF102010FA8FFF77EF9344B1B7893
:101AF800002BFBD0324B00221A700DF1070302AA0B
:101B08009DF802100FA8FFF76FFA9DF80B30052B10
:101B1800E7D801A252F823F0391B00085B1B000824
:101B2800EB1A0008EB1A00086F1B0008871B000857
:101B38009DF809309DF80A1041EA03219DF8082014
:101B4800214303A8FFF7B0F903211E48FFF7D0F897
:101B5800C7E718491648FFF773F9FFF70FFA1A4B4A
:101B68001A4A1A6004E79DF80C309DF80D402404C9
:101B780044EA036403211348FFF7BAF8B1E79DF874
:101B88000C209DF80D301B0443EA02639DF80E20DB
:101B980043EA02239DF80F1019430D48FFF750F947
:101BA80003210848FFF7A4F89BE700BF2C2600088C
:101BB800004C0008DDCCBBAABB02AA01251900080D
:101BC8001C010020302600080CED00E00400FA0596
:101BD800044C0008014B1868704700BF2000002023
:101BE80003460244934200D1704703F8011BF9E70A
:101BF80030B5141E05469BB0184605DA8B234FF006
:101C0800FF302B601BB030BD4FF40273ADF80C30C1
:101C18000CBF234604F1FF33029305934FF6FF737D
:101C280000910491ADF80E3002461E9B6946284685
:101C380000F072F8431CBCBF8B232B60002CE1D052
:101C48000022009B1A70DDE707B5009313460A4689
:101C5800014603480068FFF7CBFF03B05DF804FBBB
:101C6800200000202DE9F0478E6882469E420C46EF
:101C78009046994637D88A8912F4906F31D002235A
:101C8800256809696F1A656905EB450595FBF3F544
:101C980009F101033B449D4238BF1D46530530D529
:101CA800294600F035FB064650B90C234FF0FF30AB
:101CB800CAF80030A38943F04003A381BDE8F08748
:101CC8003A46216900F0B4FAA38923F4906343F0FB
:101CD8008003A38126613E4426604E466561ED1B64
:101CE800A5604E4500D94E4632464146206800F070
:101CF800AAFAA36800209B1BA36023681E442660E1
:101D0800DCE72A4600F05EFB06460028E2D121699E
:101D1800504600F0B1FAC8E72DE9F04F9DB00393A3
:101D28008B8980461D060C4616460FD50B696BB984
:101D3800402100F0EDFA2060206128B90C23C8F892
:101D480000304FF0FF30C7E0402363610023099360
:101D580020238DF8293030234FF0010B8DF82A30DD
:101D680037463D4615F8013B0BB1252B3ED1B7EB65
:101D7800060A0BD05346324621464046FFF772FF0B
:101D8800013000F0A480099B534409933B78002B51
:101D980000F09D8000234FF0FF32CDE90523049326
:101DA80007938DF853301A932F46052217F8011B15
:101DB8004F4800F02FFA049BD0B9D90644BF20221F
:101DC8008DF853201A0744BF2B228DF853202A7808
:101DD8002A2A15D02F4600200A25079A394611F8D5
:101DE800013B303B092B4DD9B8B10FE02F46B8E77E
:101DF8003F4A3D46801A0BFA00F018430490D3E797
:101E0800039A111D12680391002A01DB079204E06E
:101E1800524243F00203079204933B782E2B0CD1D5
:101E28007B782A2B33D1039B02371A1D1B68039238
:101E3800002BB8BF4FF0FF3305932E4D032239789E
:101E4800284600F0E7F938B14023401B03FA00F0B8
:101E5800049B0137034304933978062226487E1CE5
:101E68008DF8281000F0D6F9002838D0234B13BB82
:101E7800039B073323F0070308330393099B4B4461
:101E880009936DE705FB023201200F46A6E7002300
:101E98000A25194601370593384610F8012B303AC0
:101EA800092A03D9002BC8D00591C6E705FB0121F3
:101EB80001230746F0E703AB00932246104B04A921
:101EC8004046AFF30080B0F1FF3F8146D6D1A389E9
:101ED8005B063FF536AF09981DB0BDE8F08F03AB40
:101EE80000932246064B04A9404600F081F8EAE731
:101EF800342600083A2600083E26000800000000A4
:101F08006D1C00082DE9F04791461F468A680B6949
:101F180006469342B8BF1346C9F8003091F84320EB
:101F28000C46DDF8208012B10133C9F8003023686F
:101F3800990642BFD9F800300233C9F80030256845
:101F480015F0060507D104F1190AE368D9F800204D
:101F58009B1AAB4229DC94F843302268003318BF3F
:101F6800012392062ED404F1430239463046C04775
:101F7800013021D02368E56803F00603042B18BF5D
:101F88000025D9F800204FF0000908BFAD1AA36852
:101F9800226908BF25EAE5759342C4BF9B1AED186C
:101FA8001A344D451AD1002008E00123524639461B
:101FB8003046C047013003D14FF0FF30BDE8F0870D
:101FC8000135C2E73020E11881F843005A1C94F823
:101FD80045102244023382F84310C4E70123224605
:101FE80039463046C0470130E6D009F10109D8E743
:101FF8002DE9F04301F1430C0C46097E85B06E29AA
:102008001746064698460C9A00F0B38022D86329F2
:1020180036D00AD8002900F0B980582900F083800A
:1020280004F1420584F8421032E0642901D069299C
:10203800F6D120681368050603F104012AD51B6848
:102048001160002B03DA2D225B4284F843206F488D
:102058000A2239E0732900F09D8008D86F2920D022
:102068007029DDD1236843F02003236003E075293C
:1020780017D07829D4D17823654884F8453055E0BD
:10208800136804F14205191D1B68116084F8423079
:1020980001238CE01B6810F0400F116018BF1BB2C1
:1020A800CFE713682568181D1060280601D51B683E
:1020B80002E06806FBD51B886F2914BF0A22082294
:1020C8005248002184F843106568002DA560C0F2CD
:1020D8009580216821F004012160002B3DD1002D5D
:1020E80040F08E806546082A0BD12368DB0708D5A7
:1020F800236962689A42DEBF302305F8013C05F186
:10210800FF35ACEB05032361CDF800803B4603AAFD
:1021180021463046FFF7F6FE01304DD14FF0FF3033
:1021280005B0BDE8F083394884F845101368216884
:102138001D1D1B6815600A060BD5CA0744BF41F070
:10214800200121601BB9226822F02002226010229F
:10215800B7E74D0648BF9BB2EFE76546B3FBF2F120
:1021680002FB1133C35C05F8013D0B460029F5D18C
:10217800B9E713682568181D6169106028061B688F
:1021880001D5196002E06A06FBD51980002365466F
:102198002361B9E71368191D11601D686268002181
:1021A800284600F037F808B1401B60606368236177
:1021B800002384F84330A7E723692A463946304686
:1021C800C0470130AAD023689B0713D4E068039B5B
:1021D8009842B8BF1846A3E701234A463946304615
:1021E800C04701309AD00135E368039A9B1AAB4285
:1021F800F2DCEBE7002504F11909F5E7002BACD177
:10220800037804F1420584F842306CE7452600085B
:102218005626000810B5C9B202449042034601D1BF
:10222800002303E01C7801308C42F6D1184610BD1B
:1022380010B5431E0A44914200D110BD11F8014B5C
:1022480003F8014FF7E7884210B501EB020307D8FE
:10225800421E99420AD011F8014B02F8014FF8E7E3
:102268008342F5D98118D21AD34200D110BD13F890
:10227800014D01F8014DF7E738B50546002943D06F
:1022880051F8043C0C1F002BB8BFE41800F0D0F83C
:102298001E4A1368104633B9636014602846BDE8C7
:1022A800384000F0C6B8A3420BD92168621893429F
:1022B80001BF1A685B685218226063600460EDE72A
:1022C80013465A680AB1A242FAD919685818A042A6
:1022D8000BD120680144581882421960DED1106879
:1022E8005268014419605A60D8E702D90C232B6060
:1022F800D4E7206821188A4201BF1168526809187A
:10230800216062605C60C9E738BD00BFF001002051
:1023180070B5CD1C25F0030508350C2D38BF0C25EC
:10232800002D064601DBA94203D90C2333600020A7
:1023380070BD00F07DF8214A1468214691B9204CFF
:1023480023681BB9304600F063F820602946304600
:1023580000F05EF8431C24D10C233046336000F0B3
:1023680068F8E4E70B685B1B18D40B2B0FD90B60DC
:10237800CC18CD50304600F05CF804F10B00231D5A
:1023880020F00700C31AD3D05A42E250D0E74B6876
:102398008C4216BF636013600C46EBE70C46496835
:1023A800CCE7C41C24F00304A04205D0211A30460F
:1023B80000F02EF80130CFD02560DBE7F0010020D7
:1023C800F4010020F8B5074614460E4621B9BDE8C9
:1023D800F8401146FFF79CBF22B9FFF74DFF25468D
:1023E8002846F8BD00F026F8A0420FD2214638460C
:1023F800FFF78EFF05460028F2D031462246FFF748
:1024080017FF31463846FFF737FFE9E73546E7E774
:1024180038B50023054C054608462360FDF7AAFF9A
:10242800431C02D1236803B12B6038BDF80100209A
:102438007047704751F8043C181F002BBCBF0B585D
:10244800C0187047537461636B206672616D653A9A
:102458000A000000205230203D2020253038580A3C
:1024680000000000205231203D2020253038580A35
:1024780000000000205232203D2020253038580A24
:1024880000000000205233203D2020253038580A13
:102498000000000020523132203D20253038580AF3
:1024A80000000000204C52203D2020253038580ADA
:1024B80000000000205043203D2020253038580AD5
:1024C8000000000020505352203D20253038580A83
:1024D800000000004653522F4641523A0A000000BD
:1024E8002043465352203D2020253038580A00000A
:1024F8002048465352203D2020253038580A0000F5
:102508002044465352203D2020253038580A0000E8
:102518002041465352203D2020253038580A0000DB
:10252800204D4D464152203D20253038580A0000A4
:102538002042464152203D2020253038580A0000CC
:102548004D6973630A000000204C522F4558435FC1
:1025580052455455524E3D20253038580A00000047
:102568005B486172644661756C745D0A0000000026
:102578005B4275734661756C745D0A005B557361E7
:1025880067654661756C745D0A000000495449002E
:1025980008060D1E0D10000041542B5253540D0A0D
:1025A80000000000415445310D0A000041542B43FE
:1025B800574D4F44453D330D0A00000041542B430D
:1025C800495041505F4355523D223139322E313600
:1025D800382E3130302E31220D0A000041542B4361
:1025E80049504D55583D310D0A00000041542B43C8
:1025F80049505345525645523D310D0A00000000DE
:1026080041542B43495053454E443D302C00000063
:10261800003801400044004000480040004C0040A1
:10262800005000404954490059455300232D302B90
:102638002000686C4C0065666745464700303132BB
:102648003334353637383941424344454600303112
:0F26580032333435363738396162636465660072
:10266800785634129000002000000000000000009E
:1026780000000000010203040607080900A24A043A
:1026880024000020000000000000000000000000FE
:102698000000000000000000000000000000000032
:1026A8000000000000000000000000000000000022
:1026B8000000000000000000000000000000000012
:1026C8000000000000000000000000000000000002
:1026D80000000000000000000000000000000000F2
:0826E800000000003254769856
:084C0000FFFFFFFF00000000B0
:040000050800010DE1
:00000001FF
